{
  "_format": "hh3-artifact-1",
  "contractName": "AtomicEscrow",
  "sourceName": "contracts/AtomicEscrow.sol",
  "abi": [
    {
      "inputs": [],
      "stateMutability": "nonpayable",
      "type": "constructor"
    },
    {
      "anonymous": false,
      "inputs": [
        {
          "indexed": true,
          "internalType": "bytes32",
          "name": "transactionId",
          "type": "bytes32"
        },
        {
          "indexed": false,
          "internalType": "address",
          "name": "merchant",
          "type": "address"
        },
        {
          "indexed": false,
          "internalType": "uint256",
          "name": "amount",
          "type": "uint256"
        }
      ],
      "name": "FundsReleased",
      "type": "event"
    },
    {
      "anonymous": false,
      "inputs": [
        {
          "indexed": true,
          "internalType": "bytes32",
          "name": "transactionId",
          "type": "bytes32"
        },
        {
          "indexed": true,
          "internalType": "address",
          "name": "user",
          "type": "address"
        },
        {
          "indexed": false,
          "internalType": "uint256",
          "name": "amount",
          "type": "uint256"
        }
      ],
      "name": "PaymentInitiated",
      "type": "event"
    },
    {
      "anonymous": false,
      "inputs": [
        {
          "indexed": true,
          "internalType": "bytes32",
          "name": "transactionId",
          "type": "bytes32"
        },
        {
          "indexed": false,
          "internalType": "address",
          "name": "user",
          "type": "address"
        },
        {
          "indexed": false,
          "internalType": "uint256",
          "name": "amount",
          "type": "uint256"
        },
        {
          "indexed": false,
          "internalType": "string",
          "name": "reason",
          "type": "string"
        }
      ],
      "name": "RefundExecuted",
      "type": "event"
    },
    {
      "inputs": [
        {
          "internalType": "address payable",
          "name": "_merchant",
          "type": "address"
        },
        {
          "internalType": "bytes32",
          "name": "_transactionId",
          "type": "bytes32"
        }
      ],
      "name": "depositFunds",
      "outputs": [],
      "stateMutability": "payable",
      "type": "function"
    },
    {
      "inputs": [
        {
          "internalType": "bytes32",
          "name": "_transactionId",
          "type": "bytes32"
        }
      ],
      "name": "finalizeTransaction",
      "outputs": [],
      "stateMutability": "nonpayable",
      "type": "function"
    },
    {
      "inputs": [],
      "name": "owner",
      "outputs": [
        {
          "internalType": "address",
          "name": "",
          "type": "address"
        }
      ],
      "stateMutability": "view",
      "type": "function"
    },
    {
      "inputs": [
        {
          "internalType": "bytes32",
          "name": "_transactionId",
          "type": "bytes32"
        }
      ],
      "name": "refundUser",
      "outputs": [],
      "stateMutability": "nonpayable",
      "type": "function"
    },
    {
      "inputs": [
        {
          "internalType": "bytes32",
          "name": "",
          "type": "bytes32"
        }
      ],
      "name": "transactions",
      "outputs": [
        {
          "internalType": "address payable",
          "name": "user",
          "type": "address"
        },
        {
          "internalType": "address payable",
          "name": "merchant",
          "type": "address"
        },
        {
          "internalType": "uint256",
          "name": "amount",
          "type": "uint256"
        },
        {
          "internalType": "uint256",
          "name": "timestamp",
          "type": "uint256"
        },
        {
          "internalType": "enum AtomicEscrow.PaymentStatus",
          "name": "status",
          "type": "uint8"
        },
        {
          "internalType": "bool",
          "name": "isLocked",
          "type": "bool"
        }
      ],
      "stateMutability": "view",
      "type": "function"
    }
  ],
  "bytecode": "0x6080604052348015600e575f5ffd5b50335f5f6101000a81548173ffffffffffffffffffffffffffffffffffffffff021916908373ffffffffffffffffffffffffffffffffffffffff1602179055506113158061005b5f395ff3fe608060405260043610610049575f3560e01c80631431b3f51461004d578063642f2eaf146100695780637f5eedae146100aa5780638da5cb5b146100d2578063b2efda83146100fc575b5f5ffd5b61006760048036038101906100629190610b28565b610124565b005b348015610074575f5ffd5b5061008f600480360381019061008a9190610b66565b61037e565b6040516100a196959493929190610c45565b60405180910390f35b3480156100b5575f5ffd5b506100d060048036038101906100cb9190610b66565b61040d565b005b3480156100dd575f5ffd5b506100e661078d565b6040516100f39190610cc4565b60405180910390f35b348015610107575f5ffd5b50610122600480360381019061011d9190610b66565b6107b1565b005b5f3411610166576040517f08c379a000000000000000000000000000000000000000000000000000000000815260040161015d90610d5d565b60405180910390fd5b5f60015f8381526020019081526020015f2060020154146101bc576040517f08c379a00000000000000000000000000000000000000000000000000000000081526004016101b390610dc5565b60405180910390fd5b6040518060c001604052803373ffffffffffffffffffffffffffffffffffffffff1681526020018373ffffffffffffffffffffffffffffffffffffffff1681526020013481526020014281526020015f600281111561021e5761021d610bb8565b5b81526020016001151581525060015f8381526020019081526020015f205f820151815f015f6101000a81548173ffffffffffffffffffffffffffffffffffffffff021916908373ffffffffffffffffffffffffffffffffffffffff1602179055506020820151816001015f6101000a81548173ffffffffffffffffffffffffffffffffffffffff021916908373ffffffffffffffffffffffffffffffffffffffff16021790555060408201518160020155606082015181600301556080820151816004015f6101000a81548160ff0219169083600281111561030357610302610bb8565b5b021790555060a08201518160040160016101000a81548160ff0219169083151502179055509050503373ffffffffffffffffffffffffffffffffffffffff16817f369e2c27dca362935ec5abd15452d4e093b37fabc24e66abbae14e63aa410592346040516103729190610de3565b60405180910390a35050565b6001602052805f5260405f205f91509050805f015f9054906101000a900473ffffffffffffffffffffffffffffffffffffffff1690806001015f9054906101000a900473ffffffffffffffffffffffffffffffffffffffff1690806002015490806003015490806004015f9054906101000a900460ff16908060040160019054906101000a900460ff16905086565b5f60015f8381526020019081526020015f2090508060040160019054906101000a900460ff16610472576040517f08c379a000000000000000000000000000000000000000000000000000000000815260040161046990610e46565b60405180910390fd5b5f600281111561048557610484610bb8565b5b816004015f9054906101000a900460ff1660028111156104a8576104a7610bb8565b5b146104e8576040517f08c379a00000000000000000000000000000000000000000000000000000000081526004016104df90610eae565b60405180910390fd5b5f5f5f9054906101000a900473ffffffffffffffffffffffffffffffffffffffff1673ffffffffffffffffffffffffffffffffffffffff163373ffffffffffffffffffffffffffffffffffffffff161490505f603c836003015461054c9190610ef9565b4211905081806105595750805b610598576040517f08c379a000000000000000000000000000000000000000000000000000000000815260040161058f90610f9c565b60405180910390fd5b6002836004015f6101000a81548160ff021916908360028111156105bf576105be610bb8565b5b02179055505f8360040160016101000a81548160ff0219169083151502179055505f835f015f9054906101000a900473ffffffffffffffffffffffffffffffffffffffff1673ffffffffffffffffffffffffffffffffffffffff16846002015460405161062b90610fe7565b5f6040518083038185875af1925050503d805f8114610665576040519150601f19603f3d011682016040523d82523d5f602084013e61066a565b606091505b50509050806106ae576040517f08c379a00000000000000000000000000000000000000000000000000000000081526004016106a590611045565b60405180910390fd5b847fc6d01fc6815f4403ed986154043cd742d886120b6e55dc93e69d357dc94eb0ab855f015f9054906101000a900473ffffffffffffffffffffffffffffffffffffffff16866002015485610738576040518060400160405280601081526020017f4f7261636c65205472696767657265640000000000000000000000000000000081525061076f565b6040518060400160405280600f81526020017f54696d656f7574204578706972656400000000000000000000000000000000008152505b60405161077e9392919061111e565b60405180910390a25050505050565b5f5f9054906101000a900473ffffffffffffffffffffffffffffffffffffffff1681565b5f5f9054906101000a900473ffffffffffffffffffffffffffffffffffffffff1673ffffffffffffffffffffffffffffffffffffffff163373ffffffffffffffffffffffffffffffffffffffff161461083f576040517f08c379a0000000000000000000000000000000000000000000000000000000008152600401610836906111ca565b60405180910390fd5b5f60015f8381526020019081526020015f2090508060040160019054906101000a900460ff166108a4576040517f08c379a000000000000000000000000000000000000000000000000000000000815260040161089b90610e46565b60405180910390fd5b5f60028111156108b7576108b6610bb8565b5b816004015f9054906101000a900460ff1660028111156108da576108d9610bb8565b5b1461091a576040517f08c379a000000000000000000000000000000000000000000000000000000000815260040161091190611232565b60405180910390fd5b6001816004015f6101000a81548160ff0219169083600281111561094157610940610bb8565b5b02179055505f8160040160016101000a81548160ff0219169083151502179055505f816001015f9054906101000a900473ffffffffffffffffffffffffffffffffffffffff1673ffffffffffffffffffffffffffffffffffffffff1682600201546040516109ae90610fe7565b5f6040518083038185875af1925050503d805f81146109e8576040519150601f19603f3d011682016040523d82523d5f602084013e6109ed565b606091505b5050905080610a31576040517f08c379a0000000000000000000000000000000000000000000000000000000008152600401610a289061129a565b60405180910390fd5b827f75d86e5bfa1175e2dc677f3abe3aebba3069f2db6ae492f1734d4b4bc65f61c1836001015f9054906101000a900473ffffffffffffffffffffffffffffffffffffffff168460020154604051610a8a9291906112b8565b60405180910390a2505050565b5f5ffd5b5f73ffffffffffffffffffffffffffffffffffffffff82169050919050565b5f610ac482610a9b565b9050919050565b610ad481610aba565b8114610ade575f5ffd5b50565b5f81359050610aef81610acb565b92915050565b5f819050919050565b610b0781610af5565b8114610b11575f5ffd5b50565b5f81359050610b2281610afe565b92915050565b5f5f60408385031215610b3e57610b3d610a97565b5b5f610b4b85828601610ae1565b9250506020610b5c85828601610b14565b9150509250929050565b5f60208284031215610b7b57610b7a610a97565b5b5f610b8884828501610b14565b91505092915050565b610b9a81610aba565b82525050565b5f819050919050565b610bb281610ba0565b82525050565b7f4e487b71000000000000000000000000000000000000000000000000000000005f52602160045260245ffd5b60038110610bf657610bf5610bb8565b5b50565b5f819050610c0682610be5565b919050565b5f610c1582610bf9565b9050919050565b610c2581610c0b565b82525050565b5f8115159050919050565b610c3f81610c2b565b82525050565b5f60c082019050610c585f830189610b91565b610c656020830188610b91565b610c726040830187610ba9565b610c7f6060830186610ba9565b610c8c6080830185610c1c565b610c9960a0830184610c36565b979650505050505050565b5f610cae82610a9b565b9050919050565b610cbe81610ca4565b82525050565b5f602082019050610cd75f830184610cb5565b92915050565b5f82825260208201905092915050565b7f596f75206d7573742073656e642045544820746f2063726561746520616e20655f8201527f7363726f77000000000000000000000000000000000000000000000000000000602082015250565b5f610d47602583610cdd565b9150610d5282610ced565b604082019050919050565b5f6020820190508181035f830152610d7481610d3b565b9050919050565b7f5472616e73616374696f6e20494420616c7265616479206578697374730000005f82015250565b5f610daf601d83610cdd565b9150610dba82610d7b565b602082019050919050565b5f6020820190508181035f830152610ddc81610da3565b9050919050565b5f602082019050610df65f830184610ba9565b92915050565b7f5472616e73616374696f6e206973206e6f7420616374697665000000000000005f82015250565b5f610e30601983610cdd565b9150610e3b82610dfc565b602082019050919050565b5f6020820190508181035f830152610e5d81610e24565b9050919050565b7f5472616e73616374696f6e20616c72656164792070726f6365737365640000005f82015250565b5f610e98601d83610cdd565b9150610ea382610e64565b602082019050919050565b5f6020820190508181035f830152610ec581610e8c565b9050919050565b7f4e487b71000000000000000000000000000000000000000000000000000000005f52601160045260245ffd5b5f610f0382610ba0565b9150610f0e83610ba0565b9250828201905080821115610f2657610f25610ecc565b5b92915050565b7f5761697420666f722074696d656f7574202836307329206f72204f7261636c655f8201527f2074726967676572000000000000000000000000000000000000000000000000602082015250565b5f610f86602883610cdd565b9150610f9182610f2c565b604082019050919050565b5f6020820190508181035f830152610fb381610f7a565b9050919050565b5f81905092915050565b50565b5f610fd25f83610fba565b9150610fdd82610fc4565b5f82019050919050565b5f610ff182610fc7565b9150819050919050565b7f526566756e64207472616e73666572206661696c6564000000000000000000005f82015250565b5f61102f601683610cdd565b915061103a82610ffb565b602082019050919050565b5f6020820190508181035f83015261105c81611023565b9050919050565b5f819050919050565b5f61108661108161107c84610a9b565b611063565b610a9b565b9050919050565b5f6110978261106c565b9050919050565b5f6110a88261108d565b9050919050565b6110b88161109e565b82525050565b5f81519050919050565b8281835e5f83830152505050565b5f601f19601f8301169050919050565b5f6110f0826110be565b6110fa8185610cdd565b935061110a8185602086016110c8565b611113816110d6565b840191505092915050565b5f6060820190506111315f8301866110af565b61113e6020830185610ba9565b818103604083015261115081846110e6565b9050949350505050565b7f4f6e6c7920746865204f7261636c652f4261636b656e642063616e20747269675f8201527f6765722074686973000000000000000000000000000000000000000000000000602082015250565b5f6111b4602883610cdd565b91506111bf8261115a565b604082019050919050565b5f6020820190508181035f8301526111e1816111a8565b9050919050565b7f5472616e73616374696f6e20616c72656164792066696e616c697a65640000005f82015250565b5f61121c601d83610cdd565b9150611227826111e8565b602082019050919050565b5f6020820190508181035f83015261124981611210565b9050919050565b7f5472616e7366657220746f206d65726368616e74206661696c656400000000005f82015250565b5f611284601b83610cdd565b915061128f82611250565b602082019050919050565b5f6020820190508181035f8301526112b181611278565b9050919050565b5f6040820190506112cb5f8301856110af565b6112d86020830184610ba9565b939250505056fea264697066735822122080044c695ba43b9afb0d79e08f54f49382271bfafdb2f452cfce884dc47381b164736f6c634300081c0033",
  "linkReferences": {},
  "deployedLinkReferences": {},
  "immutableReferences": {},
  "inputSourceName": "project/contracts/AtomicEscrow.sol",
  "buildInfoId": "solc-0_8_28-217376ff73259e9fa594174620f01a1dd7ad4ada"
}