{"project/contracts/AtomicEscrow.sol":{"AtomicEscrow":{"abi":[{"inputs":[],"stateMutability":"nonpayable","type":"constructor"},{"anonymous":false,"inputs":[{"indexed":true,"internalType":"bytes32","name":"transactionId","type":"bytes32"},{"indexed":false,"internalType":"address","name":"merchant","type":"address"},{"indexed":false,"internalType":"uint256","name":"amount","type":"uint256"}],"name":"FundsReleased","type":"event"},{"anonymous":false,"inputs":[{"indexed":true,"internalType":"bytes32","name":"transactionId","type":"bytes32"},{"indexed":true,"internalType":"address","name":"user","type":"address"},{"indexed":false,"internalType":"uint256","name":"amount","type":"uint256"}],"name":"PaymentInitiated","type":"event"},{"anonymous":false,"inputs":[{"indexed":true,"internalType":"bytes32","name":"transactionId","type":"bytes32"},{"indexed":false,"internalType":"address","name":"user","type":"address"},{"indexed":false,"internalType":"uint256","name":"amount","type":"uint256"},{"indexed":false,"internalType":"string","name":"reason","type":"string"}],"name":"RefundExecuted","type":"event"},{"inputs":[{"internalType":"address payable","name":"_merchant","type":"address"},{"internalType":"bytes32","name":"_transactionId","type":"bytes32"}],"name":"depositFunds","outputs":[],"stateMutability":"payable","type":"function"},{"inputs":[{"internalType":"bytes32","name":"_transactionId","type":"bytes32"}],"name":"finalizeTransaction","outputs":[],"stateMutability":"nonpayable","type":"function"},{"inputs":[],"name":"owner","outputs":[{"internalType":"address","name":"","type":"address"}],"stateMutability":"view","type":"function"},{"inputs":[{"internalType":"bytes32","name":"_transactionId","type":"bytes32"}],"name":"refundUser","outputs":[],"stateMutability":"nonpayable","type":"function"},{"inputs":[{"internalType":"bytes32","name":"","type":"bytes32"}],"name":"transactions","outputs":[{"internalType":"address payable","name":"user","type":"address"},{"internalType":"address payable","name":"merchant","type":"address"},{"internalType":"uint256","name":"amount","type":"uint256"},{"internalType":"uint256","name":"timestamp","type":"uint256"},{"internalType":"enum AtomicEscrow.PaymentStatus","name":"status","type":"uint8"},{"internalType":"bool","name":"isLocked","type":"bool"}],"stateMutability":"view","type":"function"}],"evm":{"bytecode":{"linkReferences":{},"object":"6080604052348015600e575f5ffd5b50335f5f6101000a81548173ffffffffffffffffffffffffffffffffffffffff021916908373ffffffffffffffffffffffffffffffffffffffff1602179055506113158061005b5f395ff3fe608060405260043610610049575f3560e01c80631431b3f51461004d578063642f2eaf146100695780637f5eedae146100aa5780638da5cb5b146100d2578063b2efda83146100fc575b5f5ffd5b61006760048036038101906100629190610b28565b610124565b005b348015610074575f5ffd5b5061008f600480360381019061008a9190610b66565b61037e565b6040516100a196959493929190610c45565b60405180910390f35b3480156100b5575f5ffd5b506100d060048036038101906100cb9190610b66565b61040d565b005b3480156100dd575f5ffd5b506100e661078d565b6040516100f39190610cc4565b60405180910390f35b348015610107575f5ffd5b50610122600480360381019061011d9190610b66565b6107b1565b005b5f3411610166576040517f08c379a000000000000000000000000000000000000000000000000000000000815260040161015d90610d5d565b60405180910390fd5b5f60015f8381526020019081526020015f2060020154146101bc576040517f08c379a00000000000000000000000000000000000000000000000000000000081526004016101b390610dc5565b60405180910390fd5b6040518060c001604052803373ffffffffffffffffffffffffffffffffffffffff1681526020018373ffffffffffffffffffffffffffffffffffffffff1681526020013481526020014281526020015f600281111561021e5761021d610bb8565b5b81526020016001151581525060015f8381526020019081526020015f205f820151815f015f6101000a81548173ffffffffffffffffffffffffffffffffffffffff021916908373ffffffffffffffffffffffffffffffffffffffff1602179055506020820151816001015f6101000a81548173ffffffffffffffffffffffffffffffffffffffff021916908373ffffffffffffffffffffffffffffffffffffffff16021790555060408201518160020155606082015181600301556080820151816004015f6101000a81548160ff0219169083600281111561030357610302610bb8565b5b021790555060a08201518160040160016101000a81548160ff0219169083151502179055509050503373ffffffffffffffffffffffffffffffffffffffff16817f369e2c27dca362935ec5abd15452d4e093b37fabc24e66abbae14e63aa410592346040516103729190610de3565b60405180910390a35050565b6001602052805f5260405f205f91509050805f015f9054906101000a900473ffffffffffffffffffffffffffffffffffffffff1690806001015f9054906101000a900473ffffffffffffffffffffffffffffffffffffffff1690806002015490806003015490806004015f9054906101000a900460ff16908060040160019054906101000a900460ff16905086565b5f60015f8381526020019081526020015f2090508060040160019054906101000a900460ff16610472576040517f08c379a000000000000000000000000000000000000000000000000000000000815260040161046990610e46565b60405180910390fd5b5f600281111561048557610484610bb8565b5b816004015f9054906101000a900460ff1660028111156104a8576104a7610bb8565b5b146104e8576040517f08c379a00000000000000000000000000000000000000000000000000000000081526004016104df90610eae565b60405180910390fd5b5f5f5f9054906101000a900473ffffffffffffffffffffffffffffffffffffffff1673ffffffffffffffffffffffffffffffffffffffff163373ffffffffffffffffffffffffffffffffffffffff161490505f603c836003015461054c9190610ef9565b4211905081806105595750805b610598576040517f08c379a000000000000000000000000000000000000000000000000000000000815260040161058f90610f9c565b60405180910390fd5b6002836004015f6101000a81548160ff021916908360028111156105bf576105be610bb8565b5b02179055505f8360040160016101000a81548160ff0219169083151502179055505f835f015f9054906101000a900473ffffffffffffffffffffffffffffffffffffffff1673ffffffffffffffffffffffffffffffffffffffff16846002015460405161062b90610fe7565b5f6040518083038185875af1925050503d805f8114610665576040519150601f19603f3d011682016040523d82523d5f602084013e61066a565b606091505b50509050806106ae576040517f08c379a00000000000000000000000000000000000000000000000000000000081526004016106a590611045565b60405180910390fd5b847fc6d01fc6815f4403ed986154043cd742d886120b6e55dc93e69d357dc94eb0ab855f015f9054906101000a900473ffffffffffffffffffffffffffffffffffffffff16866002015485610738576040518060400160405280601081526020017f4f7261636c65205472696767657265640000000000000000000000000000000081525061076f565b6040518060400160405280600f81526020017f54696d656f7574204578706972656400000000000000000000000000000000008152505b60405161077e9392919061111e565b60405180910390a25050505050565b5f5f9054906101000a900473ffffffffffffffffffffffffffffffffffffffff1681565b5f5f9054906101000a900473ffffffffffffffffffffffffffffffffffffffff1673ffffffffffffffffffffffffffffffffffffffff163373ffffffffffffffffffffffffffffffffffffffff161461083f576040517f08c379a0000000000000000000000000000000000000000000000000000000008152600401610836906111ca565b60405180910390fd5b5f60015f8381526020019081526020015f2090508060040160019054906101000a900460ff166108a4576040517f08c379a000000000000000000000000000000000000000000000000000000000815260040161089b90610e46565b60405180910390fd5b5f60028111156108b7576108b6610bb8565b5b816004015f9054906101000a900460ff1660028111156108da576108d9610bb8565b5b1461091a576040517f08c379a000000000000000000000000000000000000000000000000000000000815260040161091190611232565b60405180910390fd5b6001816004015f6101000a81548160ff0219169083600281111561094157610940610bb8565b5b02179055505f8160040160016101000a81548160ff0219169083151502179055505f816001015f9054906101000a900473ffffffffffffffffffffffffffffffffffffffff1673ffffffffffffffffffffffffffffffffffffffff1682600201546040516109ae90610fe7565b5f6040518083038185875af1925050503d805f81146109e8576040519150601f19603f3d011682016040523d82523d5f602084013e6109ed565b606091505b5050905080610a31576040517f08c379a0000000000000000000000000000000000000000000000000000000008152600401610a289061129a565b60405180910390fd5b827f75d86e5bfa1175e2dc677f3abe3aebba3069f2db6ae492f1734d4b4bc65f61c1836001015f9054906101000a900473ffffffffffffffffffffffffffffffffffffffff168460020154604051610a8a9291906112b8565b60405180910390a2505050565b5f5ffd5b5f73ffffffffffffffffffffffffffffffffffffffff82169050919050565b5f610ac482610a9b565b9050919050565b610ad481610aba565b8114610ade575f5ffd5b50565b5f81359050610aef81610acb565b92915050565b5f819050919050565b610b0781610af5565b8114610b11575f5ffd5b50565b5f81359050610b2281610afe565b92915050565b5f5f60408385031215610b3e57610b3d610a97565b5b5f610b4b85828601610ae1565b9250506020610b5c85828601610b14565b9150509250929050565b5f60208284031215610b7b57610b7a610a97565b5b5f610b8884828501610b14565b91505092915050565b610b9a81610aba565b82525050565b5f819050919050565b610bb281610ba0565b82525050565b7f4e487b71000000000000000000000000000000000000000000000000000000005f52602160045260245ffd5b60038110610bf657610bf5610bb8565b5b50565b5f819050610c0682610be5565b919050565b5f610c1582610bf9565b9050919050565b610c2581610c0b565b82525050565b5f8115159050919050565b610c3f81610c2b565b82525050565b5f60c082019050610c585f830189610b91565b610c656020830188610b91565b610c726040830187610ba9565b610c7f6060830186610ba9565b610c8c6080830185610c1c565b610c9960a0830184610c36565b979650505050505050565b5f610cae82610a9b565b9050919050565b610cbe81610ca4565b82525050565b5f602082019050610cd75f830184610cb5565b92915050565b5f82825260208201905092915050565b7f596f75206d7573742073656e642045544820746f2063726561746520616e20655f8201527f7363726f77000000000000000000000000000000000000000000000000000000602082015250565b5f610d47602583610cdd565b9150610d5282610ced565b604082019050919050565b5f6020820190508181035f830152610d7481610d3b565b9050919050565b7f5472616e73616374696f6e20494420616c7265616479206578697374730000005f82015250565b5f610daf601d83610cdd565b9150610dba82610d7b565b602082019050919050565b5f6020820190508181035f830152610ddc81610da3565b9050919050565b5f602082019050610df65f830184610ba9565b92915050565b7f5472616e73616374696f6e206973206e6f7420616374697665000000000000005f82015250565b5f610e30601983610cdd565b9150610e3b82610dfc565b602082019050919050565b5f6020820190508181035f830152610e5d81610e24565b9050919050565b7f5472616e73616374696f6e20616c72656164792070726f6365737365640000005f82015250565b5f610e98601d83610cdd565b9150610ea382610e64565b602082019050919050565b5f6020820190508181035f830152610ec581610e8c565b9050919050565b7f4e487b71000000000000000000000000000000000000000000000000000000005f52601160045260245ffd5b5f610f0382610ba0565b9150610f0e83610ba0565b9250828201905080821115610f2657610f25610ecc565b5b92915050565b7f5761697420666f722074696d656f7574202836307329206f72204f7261636c655f8201527f2074726967676572000000000000000000000000000000000000000000000000602082015250565b5f610f86602883610cdd565b9150610f9182610f2c565b604082019050919050565b5f6020820190508181035f830152610fb381610f7a565b9050919050565b5f81905092915050565b50565b5f610fd25f83610fba565b9150610fdd82610fc4565b5f82019050919050565b5f610ff182610fc7565b9150819050919050565b7f526566756e64207472616e73666572206661696c6564000000000000000000005f82015250565b5f61102f601683610cdd565b915061103a82610ffb565b602082019050919050565b5f6020820190508181035f83015261105c81611023565b9050919050565b5f819050919050565b5f61108661108161107c84610a9b565b611063565b610a9b565b9050919050565b5f6110978261106c565b9050919050565b5f6110a88261108d565b9050919050565b6110b88161109e565b82525050565b5f81519050919050565b8281835e5f83830152505050565b5f601f19601f8301169050919050565b5f6110f0826110be565b6110fa8185610cdd565b935061110a8185602086016110c8565b611113816110d6565b840191505092915050565b5f6060820190506111315f8301866110af565b61113e6020830185610ba9565b818103604083015261115081846110e6565b9050949350505050565b7f4f6e6c7920746865204f7261636c652f4261636b656e642063616e20747269675f8201527f6765722074686973000000000000000000000000000000000000000000000000602082015250565b5f6111b4602883610cdd565b91506111bf8261115a565b604082019050919050565b5f6020820190508181035f8301526111e1816111a8565b9050919050565b7f5472616e73616374696f6e20616c72656164792066696e616c697a65640000005f82015250565b5f61121c601d83610cdd565b9150611227826111e8565b602082019050919050565b5f6020820190508181035f83015261124981611210565b9050919050565b7f5472616e7366657220746f206d65726368616e74206661696c656400000000005f82015250565b5f611284601b83610cdd565b915061128f82611250565b602082019050919050565b5f6020820190508181035f8301526112b181611278565b9050919050565b5f6040820190506112cb5f8301856110af565b6112d86020830184610ba9565b939250505056fea264697066735822122080044c695ba43b9afb0d79e08f54f49382271bfafdb2f452cfce884dc47381b164736f6c634300081c0033","opcodes":"PUSH1 0x80 PUSH1 0x40 MSTORE CALLVALUE DUP1 ISZERO PUSH1 0xE JUMPI PUSH0 PUSH0 REVERT JUMPDEST POP CALLER PUSH0 PUSH0 PUSH2 0x100 EXP DUP2 SLOAD DUP2 PUSH20 0xFFFFFFFFFFFFFFFFFFFFFFFFFFFFFFFFFFFFFFFF MUL NOT AND SWAP1 DUP4 PUSH20 0xFFFFFFFFFFFFFFFFFFFFFFFFFFFFFFFFFFFFFFFF AND MUL OR SWAP1 SSTORE POP PUSH2 0x1315 DUP1 PUSH2 0x5B PUSH0 CODECOPY PUSH0 RETURN INVALID PUSH1 0x80 PUSH1 0x40 MSTORE PUSH1 0x4 CALLDATASIZE LT PUSH2 0x49 JUMPI PUSH0 CALLDATALOAD PUSH1 0xE0 SHR DUP1 PUSH4 0x1431B3F5 EQ PUSH2 0x4D JUMPI DUP1 PUSH4 0x642F2EAF EQ PUSH2 0x69 JUMPI DUP1 PUSH4 0x7F5EEDAE EQ PUSH2 0xAA JUMPI DUP1 PUSH4 0x8DA5CB5B EQ PUSH2 0xD2 JUMPI DUP1 PUSH4 0xB2EFDA83 EQ PUSH2 0xFC JUMPI JUMPDEST PUSH0 PUSH0 REVERT JUMPDEST PUSH2 0x67 PUSH1 0x4 DUP1 CALLDATASIZE SUB DUP2 ADD SWAP1 PUSH2 0x62 SWAP2 SWAP1 PUSH2 0xB28 JUMP JUMPDEST PUSH2 0x124 JUMP JUMPDEST STOP JUMPDEST CALLVALUE DUP1 ISZERO PUSH2 0x74 JUMPI PUSH0 PUSH0 REVERT JUMPDEST POP PUSH2 0x8F PUSH1 0x4 DUP1 CALLDATASIZE SUB DUP2 ADD SWAP1 PUSH2 0x8A SWAP2 SWAP1 PUSH2 0xB66 JUMP JUMPDEST PUSH2 0x37E JUMP JUMPDEST PUSH1 0x40 MLOAD PUSH2 0xA1 SWAP7 SWAP6 SWAP5 SWAP4 SWAP3 SWAP2 SWAP1 PUSH2 0xC45 JUMP JUMPDEST PUSH1 0x40 MLOAD DUP1 SWAP2 SUB SWAP1 RETURN JUMPDEST CALLVALUE DUP1 ISZERO PUSH2 0xB5 JUMPI PUSH0 PUSH0 REVERT JUMPDEST POP PUSH2 0xD0 PUSH1 0x4 DUP1 CALLDATASIZE SUB DUP2 ADD SWAP1 PUSH2 0xCB SWAP2 SWAP1 PUSH2 0xB66 JUMP JUMPDEST PUSH2 0x40D JUMP JUMPDEST STOP JUMPDEST CALLVALUE DUP1 ISZERO PUSH2 0xDD JUMPI PUSH0 PUSH0 REVERT JUMPDEST POP PUSH2 0xE6 PUSH2 0x78D JUMP JUMPDEST PUSH1 0x40 MLOAD PUSH2 0xF3 SWAP2 SWAP1 PUSH2 0xCC4 JUMP JUMPDEST PUSH1 0x40 MLOAD DUP1 SWAP2 SUB SWAP1 RETURN JUMPDEST CALLVALUE DUP1 ISZERO PUSH2 0x107 JUMPI PUSH0 PUSH0 REVERT JUMPDEST POP PUSH2 0x122 PUSH1 0x4 DUP1 CALLDATASIZE SUB DUP2 ADD SWAP1 PUSH2 0x11D SWAP2 SWAP1 PUSH2 0xB66 JUMP JUMPDEST PUSH2 0x7B1 JUMP JUMPDEST STOP JUMPDEST PUSH0 CALLVALUE GT PUSH2 0x166 JUMPI PUSH1 0x40 MLOAD PUSH32 0x8C379A000000000000000000000000000000000000000000000000000000000 DUP2 MSTORE PUSH1 0x4 ADD PUSH2 0x15D SWAP1 PUSH2 0xD5D JUMP JUMPDEST PUSH1 0x40 MLOAD DUP1 SWAP2 SUB SWAP1 REVERT JUMPDEST PUSH0 PUSH1 0x1 PUSH0 DUP4 DUP2 MSTORE PUSH1 0x20 ADD SWAP1 DUP2 MSTORE PUSH1 0x20 ADD PUSH0 KECCAK256 PUSH1 0x2 ADD SLOAD EQ PUSH2 0x1BC JUMPI PUSH1 0x40 MLOAD PUSH32 0x8C379A000000000000000000000000000000000000000000000000000000000 DUP2 MSTORE PUSH1 0x4 ADD PUSH2 0x1B3 SWAP1 PUSH2 0xDC5 JUMP JUMPDEST PUSH1 0x40 MLOAD DUP1 SWAP2 SUB SWAP1 REVERT JUMPDEST PUSH1 0x40 MLOAD DUP1 PUSH1 0xC0 ADD PUSH1 0x40 MSTORE DUP1 CALLER PUSH20 0xFFFFFFFFFFFFFFFFFFFFFFFFFFFFFFFFFFFFFFFF AND DUP2 MSTORE PUSH1 0x20 ADD DUP4 PUSH20 0xFFFFFFFFFFFFFFFFFFFFFFFFFFFFFFFFFFFFFFFF AND DUP2 MSTORE PUSH1 0x20 ADD CALLVALUE DUP2 MSTORE PUSH1 0x20 ADD TIMESTAMP DUP2 MSTORE PUSH1 0x20 ADD PUSH0 PUSH1 0x2 DUP2 GT ISZERO PUSH2 0x21E JUMPI PUSH2 0x21D PUSH2 0xBB8 JUMP JUMPDEST JUMPDEST DUP2 MSTORE PUSH1 0x20 ADD PUSH1 0x1 ISZERO ISZERO DUP2 MSTORE POP PUSH1 0x1 PUSH0 DUP4 DUP2 MSTORE PUSH1 0x20 ADD SWAP1 DUP2 MSTORE PUSH1 0x20 ADD PUSH0 KECCAK256 PUSH0 DUP3 ADD MLOAD DUP2 PUSH0 ADD PUSH0 PUSH2 0x100 EXP DUP2 SLOAD DUP2 PUSH20 0xFFFFFFFFFFFFFFFFFFFFFFFFFFFFFFFFFFFFFFFF MUL NOT AND SWAP1 DUP4 PUSH20 0xFFFFFFFFFFFFFFFFFFFFFFFFFFFFFFFFFFFFFFFF AND MUL OR SWAP1 SSTORE POP PUSH1 0x20 DUP3 ADD MLOAD DUP2 PUSH1 0x1 ADD PUSH0 PUSH2 0x100 EXP DUP2 SLOAD DUP2 PUSH20 0xFFFFFFFFFFFFFFFFFFFFFFFFFFFFFFFFFFFFFFFF MUL NOT AND SWAP1 DUP4 PUSH20 0xFFFFFFFFFFFFFFFFFFFFFFFFFFFFFFFFFFFFFFFF AND MUL OR SWAP1 SSTORE POP PUSH1 0x40 DUP3 ADD MLOAD DUP2 PUSH1 0x2 ADD SSTORE PUSH1 0x60 DUP3 ADD MLOAD DUP2 PUSH1 0x3 ADD SSTORE PUSH1 0x80 DUP3 ADD MLOAD DUP2 PUSH1 0x4 ADD PUSH0 PUSH2 0x100 EXP DUP2 SLOAD DUP2 PUSH1 0xFF MUL NOT AND SWAP1 DUP4 PUSH1 0x2 DUP2 GT ISZERO PUSH2 0x303 JUMPI PUSH2 0x302 PUSH2 0xBB8 JUMP JUMPDEST JUMPDEST MUL OR SWAP1 SSTORE POP PUSH1 0xA0 DUP3 ADD MLOAD DUP2 PUSH1 0x4 ADD PUSH1 0x1 PUSH2 0x100 EXP DUP2 SLOAD DUP2 PUSH1 0xFF MUL NOT AND SWAP1 DUP4 ISZERO ISZERO MUL OR SWAP1 SSTORE POP SWAP1 POP POP CALLER PUSH20 0xFFFFFFFFFFFFFFFFFFFFFFFFFFFFFFFFFFFFFFFF AND DUP2 PUSH32 0x369E2C27DCA362935EC5ABD15452D4E093B37FABC24E66ABBAE14E63AA410592 CALLVALUE PUSH1 0x40 MLOAD PUSH2 0x372 SWAP2 SWAP1 PUSH2 0xDE3 JUMP JUMPDEST PUSH1 0x40 MLOAD DUP1 SWAP2 SUB SWAP1 LOG3 POP POP JUMP JUMPDEST PUSH1 0x1 PUSH1 0x20 MSTORE DUP1 PUSH0 MSTORE PUSH1 0x40 PUSH0 KECCAK256 PUSH0 SWAP2 POP SWAP1 POP DUP1 PUSH0 ADD PUSH0 SWAP1 SLOAD SWAP1 PUSH2 0x100 EXP SWAP1 DIV PUSH20 0xFFFFFFFFFFFFFFFFFFFFFFFFFFFFFFFFFFFFFFFF AND SWAP1 DUP1 PUSH1 0x1 ADD PUSH0 SWAP1 SLOAD SWAP1 PUSH2 0x100 EXP SWAP1 DIV PUSH20 0xFFFFFFFFFFFFFFFFFFFFFFFFFFFFFFFFFFFFFFFF AND SWAP1 DUP1 PUSH1 0x2 ADD SLOAD SWAP1 DUP1 PUSH1 0x3 ADD SLOAD SWAP1 DUP1 PUSH1 0x4 ADD PUSH0 SWAP1 SLOAD SWAP1 PUSH2 0x100 EXP SWAP1 DIV PUSH1 0xFF AND SWAP1 DUP1 PUSH1 0x4 ADD PUSH1 0x1 SWAP1 SLOAD SWAP1 PUSH2 0x100 EXP SWAP1 DIV PUSH1 0xFF AND SWAP1 POP DUP7 JUMP JUMPDEST PUSH0 PUSH1 0x1 PUSH0 DUP4 DUP2 MSTORE PUSH1 0x20 ADD SWAP1 DUP2 MSTORE PUSH1 0x20 ADD PUSH0 KECCAK256 SWAP1 POP DUP1 PUSH1 0x4 ADD PUSH1 0x1 SWAP1 SLOAD SWAP1 PUSH2 0x100 EXP SWAP1 DIV PUSH1 0xFF AND PUSH2 0x472 JUMPI PUSH1 0x40 MLOAD PUSH32 0x8C379A000000000000000000000000000000000000000000000000000000000 DUP2 MSTORE PUSH1 0x4 ADD PUSH2 0x469 SWAP1 PUSH2 0xE46 JUMP JUMPDEST PUSH1 0x40 MLOAD DUP1 SWAP2 SUB SWAP1 REVERT JUMPDEST PUSH0 PUSH1 0x2 DUP2 GT ISZERO PUSH2 0x485 JUMPI PUSH2 0x484 PUSH2 0xBB8 JUMP JUMPDEST JUMPDEST DUP2 PUSH1 0x4 ADD PUSH0 SWAP1 SLOAD SWAP1 PUSH2 0x100 EXP SWAP1 DIV PUSH1 0xFF AND PUSH1 0x2 DUP2 GT ISZERO PUSH2 0x4A8 JUMPI PUSH2 0x4A7 PUSH2 0xBB8 JUMP JUMPDEST JUMPDEST EQ PUSH2 0x4E8 JUMPI PUSH1 0x40 MLOAD PUSH32 0x8C379A000000000000000000000000000000000000000000000000000000000 DUP2 MSTORE PUSH1 0x4 ADD PUSH2 0x4DF SWAP1 PUSH2 0xEAE JUMP JUMPDEST PUSH1 0x40 MLOAD DUP1 SWAP2 SUB SWAP1 REVERT JUMPDEST PUSH0 PUSH0 PUSH0 SWAP1 SLOAD SWAP1 PUSH2 0x100 EXP SWAP1 DIV PUSH20 0xFFFFFFFFFFFFFFFFFFFFFFFFFFFFFFFFFFFFFFFF AND PUSH20 0xFFFFFFFFFFFFFFFFFFFFFFFFFFFFFFFFFFFFFFFF AND CALLER PUSH20 0xFFFFFFFFFFFFFFFFFFFFFFFFFFFFFFFFFFFFFFFF AND EQ SWAP1 POP PUSH0 PUSH1 0x3C DUP4 PUSH1 0x3 ADD SLOAD PUSH2 0x54C SWAP2 SWAP1 PUSH2 0xEF9 JUMP JUMPDEST TIMESTAMP GT SWAP1 POP DUP2 DUP1 PUSH2 0x559 JUMPI POP DUP1 JUMPDEST PUSH2 0x598 JUMPI PUSH1 0x40 MLOAD PUSH32 0x8C379A000000000000000000000000000000000000000000000000000000000 DUP2 MSTORE PUSH1 0x4 ADD PUSH2 0x58F SWAP1 PUSH2 0xF9C JUMP JUMPDEST PUSH1 0x40 MLOAD DUP1 SWAP2 SUB SWAP1 REVERT JUMPDEST PUSH1 0x2 DUP4 PUSH1 0x4 ADD PUSH0 PUSH2 0x100 EXP DUP2 SLOAD DUP2 PUSH1 0xFF MUL NOT AND SWAP1 DUP4 PUSH1 0x2 DUP2 GT ISZERO PUSH2 0x5BF JUMPI PUSH2 0x5BE PUSH2 0xBB8 JUMP JUMPDEST JUMPDEST MUL OR SWAP1 SSTORE POP PUSH0 DUP4 PUSH1 0x4 ADD PUSH1 0x1 PUSH2 0x100 EXP DUP2 SLOAD DUP2 PUSH1 0xFF MUL NOT AND SWAP1 DUP4 ISZERO ISZERO MUL OR SWAP1 SSTORE POP PUSH0 DUP4 PUSH0 ADD PUSH0 SWAP1 SLOAD SWAP1 PUSH2 0x100 EXP SWAP1 DIV PUSH20 0xFFFFFFFFFFFFFFFFFFFFFFFFFFFFFFFFFFFFFFFF AND PUSH20 0xFFFFFFFFFFFFFFFFFFFFFFFFFFFFFFFFFFFFFFFF AND DUP5 PUSH1 0x2 ADD SLOAD PUSH1 0x40 MLOAD PUSH2 0x62B SWAP1 PUSH2 0xFE7 JUMP JUMPDEST PUSH0 PUSH1 0x40 MLOAD DUP1 DUP4 SUB DUP2 DUP6 DUP8 GAS CALL SWAP3 POP POP POP RETURNDATASIZE DUP1 PUSH0 DUP2 EQ PUSH2 0x665 JUMPI PUSH1 0x40 MLOAD SWAP2 POP PUSH1 0x1F NOT PUSH1 0x3F RETURNDATASIZE ADD AND DUP3 ADD PUSH1 0x40 MSTORE RETURNDATASIZE DUP3 MSTORE RETURNDATASIZE PUSH0 PUSH1 0x20 DUP5 ADD RETURNDATACOPY PUSH2 0x66A JUMP JUMPDEST PUSH1 0x60 SWAP2 POP JUMPDEST POP POP SWAP1 POP DUP1 PUSH2 0x6AE JUMPI PUSH1 0x40 MLOAD PUSH32 0x8C379A000000000000000000000000000000000000000000000000000000000 DUP2 MSTORE PUSH1 0x4 ADD PUSH2 0x6A5 SWAP1 PUSH2 0x1045 JUMP JUMPDEST PUSH1 0x40 MLOAD DUP1 SWAP2 SUB SWAP1 REVERT JUMPDEST DUP5 PUSH32 0xC6D01FC6815F4403ED986154043CD742D886120B6E55DC93E69D357DC94EB0AB DUP6 PUSH0 ADD PUSH0 SWAP1 SLOAD SWAP1 PUSH2 0x100 EXP SWAP1 DIV PUSH20 0xFFFFFFFFFFFFFFFFFFFFFFFFFFFFFFFFFFFFFFFF AND DUP7 PUSH1 0x2 ADD SLOAD DUP6 PUSH2 0x738 JUMPI PUSH1 0x40 MLOAD DUP1 PUSH1 0x40 ADD PUSH1 0x40 MSTORE DUP1 PUSH1 0x10 DUP2 MSTORE PUSH1 0x20 ADD PUSH32 0x4F7261636C652054726967676572656400000000000000000000000000000000 DUP2 MSTORE POP PUSH2 0x76F JUMP JUMPDEST PUSH1 0x40 MLOAD DUP1 PUSH1 0x40 ADD PUSH1 0x40 MSTORE DUP1 PUSH1 0xF DUP2 MSTORE PUSH1 0x20 ADD PUSH32 0x54696D656F757420457870697265640000000000000000000000000000000000 DUP2 MSTORE POP JUMPDEST PUSH1 0x40 MLOAD PUSH2 0x77E SWAP4 SWAP3 SWAP2 SWAP1 PUSH2 0x111E JUMP JUMPDEST PUSH1 0x40 MLOAD DUP1 SWAP2 SUB SWAP1 LOG2 POP POP POP POP POP JUMP JUMPDEST PUSH0 PUSH0 SWAP1 SLOAD SWAP1 PUSH2 0x100 EXP SWAP1 DIV PUSH20 0xFFFFFFFFFFFFFFFFFFFFFFFFFFFFFFFFFFFFFFFF AND DUP2 JUMP JUMPDEST PUSH0 PUSH0 SWAP1 SLOAD SWAP1 PUSH2 0x100 EXP SWAP1 DIV PUSH20 0xFFFFFFFFFFFFFFFFFFFFFFFFFFFFFFFFFFFFFFFF AND PUSH20 0xFFFFFFFFFFFFFFFFFFFFFFFFFFFFFFFFFFFFFFFF AND CALLER PUSH20 0xFFFFFFFFFFFFFFFFFFFFFFFFFFFFFFFFFFFFFFFF AND EQ PUSH2 0x83F JUMPI PUSH1 0x40 MLOAD PUSH32 0x8C379A000000000000000000000000000000000000000000000000000000000 DUP2 MSTORE PUSH1 0x4 ADD PUSH2 0x836 SWAP1 PUSH2 0x11CA JUMP JUMPDEST PUSH1 0x40 MLOAD DUP1 SWAP2 SUB SWAP1 REVERT JUMPDEST PUSH0 PUSH1 0x1 PUSH0 DUP4 DUP2 MSTORE PUSH1 0x20 ADD SWAP1 DUP2 MSTORE PUSH1 0x20 ADD PUSH0 KECCAK256 SWAP1 POP DUP1 PUSH1 0x4 ADD PUSH1 0x1 SWAP1 SLOAD SWAP1 PUSH2 0x100 EXP SWAP1 DIV PUSH1 0xFF AND PUSH2 0x8A4 JUMPI PUSH1 0x40 MLOAD PUSH32 0x8C379A000000000000000000000000000000000000000000000000000000000 DUP2 MSTORE PUSH1 0x4 ADD PUSH2 0x89B SWAP1 PUSH2 0xE46 JUMP JUMPDEST PUSH1 0x40 MLOAD DUP1 SWAP2 SUB SWAP1 REVERT JUMPDEST PUSH0 PUSH1 0x2 DUP2 GT ISZERO PUSH2 0x8B7 JUMPI PUSH2 0x8B6 PUSH2 0xBB8 JUMP JUMPDEST JUMPDEST DUP2 PUSH1 0x4 ADD PUSH0 SWAP1 SLOAD SWAP1 PUSH2 0x100 EXP SWAP1 DIV PUSH1 0xFF AND PUSH1 0x2 DUP2 GT ISZERO PUSH2 0x8DA JUMPI PUSH2 0x8D9 PUSH2 0xBB8 JUMP JUMPDEST JUMPDEST EQ PUSH2 0x91A JUMPI PUSH1 0x40 MLOAD PUSH32 0x8C379A000000000000000000000000000000000000000000000000000000000 DUP2 MSTORE PUSH1 0x4 ADD PUSH2 0x911 SWAP1 PUSH2 0x1232 JUMP JUMPDEST PUSH1 0x40 MLOAD DUP1 SWAP2 SUB SWAP1 REVERT JUMPDEST PUSH1 0x1 DUP2 PUSH1 0x4 ADD PUSH0 PUSH2 0x100 EXP DUP2 SLOAD DUP2 PUSH1 0xFF MUL NOT AND SWAP1 DUP4 PUSH1 0x2 DUP2 GT ISZERO PUSH2 0x941 JUMPI PUSH2 0x940 PUSH2 0xBB8 JUMP JUMPDEST JUMPDEST MUL OR SWAP1 SSTORE POP PUSH0 DUP2 PUSH1 0x4 ADD PUSH1 0x1 PUSH2 0x100 EXP DUP2 SLOAD DUP2 PUSH1 0xFF MUL NOT AND SWAP1 DUP4 ISZERO ISZERO MUL OR SWAP1 SSTORE POP PUSH0 DUP2 PUSH1 0x1 ADD PUSH0 SWAP1 SLOAD SWAP1 PUSH2 0x100 EXP SWAP1 DIV PUSH20 0xFFFFFFFFFFFFFFFFFFFFFFFFFFFFFFFFFFFFFFFF AND PUSH20 0xFFFFFFFFFFFFFFFFFFFFFFFFFFFFFFFFFFFFFFFF AND DUP3 PUSH1 0x2 ADD SLOAD PUSH1 0x40 MLOAD PUSH2 0x9AE SWAP1 PUSH2 0xFE7 JUMP JUMPDEST PUSH0 PUSH1 0x40 MLOAD DUP1 DUP4 SUB DUP2 DUP6 DUP8 GAS CALL SWAP3 POP POP POP RETURNDATASIZE DUP1 PUSH0 DUP2 EQ PUSH2 0x9E8 JUMPI PUSH1 0x40 MLOAD SWAP2 POP PUSH1 0x1F NOT PUSH1 0x3F RETURNDATASIZE ADD AND DUP3 ADD PUSH1 0x40 MSTORE RETURNDATASIZE DUP3 MSTORE RETURNDATASIZE PUSH0 PUSH1 0x20 DUP5 ADD RETURNDATACOPY PUSH2 0x9ED JUMP JUMPDEST PUSH1 0x60 SWAP2 POP JUMPDEST POP POP SWAP1 POP DUP1 PUSH2 0xA31 JUMPI PUSH1 0x40 MLOAD PUSH32 0x8C379A000000000000000000000000000000000000000000000000000000000 DUP2 MSTORE PUSH1 0x4 ADD PUSH2 0xA28 SWAP1 PUSH2 0x129A JUMP JUMPDEST PUSH1 0x40 MLOAD DUP1 SWAP2 SUB SWAP1 REVERT JUMPDEST DUP3 PUSH32 0x75D86E5BFA1175E2DC677F3ABE3AEBBA3069F2DB6AE492F1734D4B4BC65F61C1 DUP4 PUSH1 0x1 ADD PUSH0 SWAP1 SLOAD SWAP1 PUSH2 0x100 EXP SWAP1 DIV PUSH20 0xFFFFFFFFFFFFFFFFFFFFFFFFFFFFFFFFFFFFFFFF AND DUP5 PUSH1 0x2 ADD SLOAD PUSH1 0x40 MLOAD PUSH2 0xA8A SWAP3 SWAP2 SWAP1 PUSH2 0x12B8 JUMP JUMPDEST PUSH1 0x40 MLOAD DUP1 SWAP2 SUB SWAP1 LOG2 POP POP POP JUMP JUMPDEST PUSH0 PUSH0 REVERT JUMPDEST PUSH0 PUSH20 0xFFFFFFFFFFFFFFFFFFFFFFFFFFFFFFFFFFFFFFFF DUP3 AND SWAP1 POP SWAP2 SWAP1 POP JUMP JUMPDEST PUSH0 PUSH2 0xAC4 DUP3 PUSH2 0xA9B JUMP JUMPDEST SWAP1 POP SWAP2 SWAP1 POP JUMP JUMPDEST PUSH2 0xAD4 DUP2 PUSH2 0xABA JUMP JUMPDEST DUP2 EQ PUSH2 0xADE JUMPI PUSH0 PUSH0 REVERT JUMPDEST POP JUMP JUMPDEST PUSH0 DUP2 CALLDATALOAD SWAP1 POP PUSH2 0xAEF DUP2 PUSH2 0xACB JUMP JUMPDEST SWAP3 SWAP2 POP POP JUMP JUMPDEST PUSH0 DUP2 SWAP1 POP SWAP2 SWAP1 POP JUMP JUMPDEST PUSH2 0xB07 DUP2 PUSH2 0xAF5 JUMP JUMPDEST DUP2 EQ PUSH2 0xB11 JUMPI PUSH0 PUSH0 REVERT JUMPDEST POP JUMP JUMPDEST PUSH0 DUP2 CALLDATALOAD SWAP1 POP PUSH2 0xB22 DUP2 PUSH2 0xAFE JUMP JUMPDEST SWAP3 SWAP2 POP POP JUMP JUMPDEST PUSH0 PUSH0 PUSH1 0x40 DUP4 DUP6 SUB SLT ISZERO PUSH2 0xB3E JUMPI PUSH2 0xB3D PUSH2 0xA97 JUMP JUMPDEST JUMPDEST PUSH0 PUSH2 0xB4B DUP6 DUP3 DUP7 ADD PUSH2 0xAE1 JUMP JUMPDEST SWAP3 POP POP PUSH1 0x20 PUSH2 0xB5C DUP6 DUP3 DUP7 ADD PUSH2 0xB14 JUMP JUMPDEST SWAP2 POP POP SWAP3 POP SWAP3 SWAP1 POP JUMP JUMPDEST PUSH0 PUSH1 0x20 DUP3 DUP5 SUB SLT ISZERO PUSH2 0xB7B JUMPI PUSH2 0xB7A PUSH2 0xA97 JUMP JUMPDEST JUMPDEST PUSH0 PUSH2 0xB88 DUP5 DUP3 DUP6 ADD PUSH2 0xB14 JUMP JUMPDEST SWAP2 POP POP SWAP3 SWAP2 POP POP JUMP JUMPDEST PUSH2 0xB9A DUP2 PUSH2 0xABA JUMP JUMPDEST DUP3 MSTORE POP POP JUMP JUMPDEST PUSH0 DUP2 SWAP1 POP SWAP2 SWAP1 POP JUMP JUMPDEST PUSH2 0xBB2 DUP2 PUSH2 0xBA0 JUMP JUMPDEST DUP3 MSTORE POP POP JUMP JUMPDEST PUSH32 0x4E487B7100000000000000000000000000000000000000000000000000000000 PUSH0 MSTORE PUSH1 0x21 PUSH1 0x4 MSTORE PUSH1 0x24 PUSH0 REVERT JUMPDEST PUSH1 0x3 DUP2 LT PUSH2 0xBF6 JUMPI PUSH2 0xBF5 PUSH2 0xBB8 JUMP JUMPDEST JUMPDEST POP JUMP JUMPDEST PUSH0 DUP2 SWAP1 POP PUSH2 0xC06 DUP3 PUSH2 0xBE5 JUMP JUMPDEST SWAP2 SWAP1 POP JUMP JUMPDEST PUSH0 PUSH2 0xC15 DUP3 PUSH2 0xBF9 JUMP JUMPDEST SWAP1 POP SWAP2 SWAP1 POP JUMP JUMPDEST PUSH2 0xC25 DUP2 PUSH2 0xC0B JUMP JUMPDEST DUP3 MSTORE POP POP JUMP JUMPDEST PUSH0 DUP2 ISZERO ISZERO SWAP1 POP SWAP2 SWAP1 POP JUMP JUMPDEST PUSH2 0xC3F DUP2 PUSH2 0xC2B JUMP JUMPDEST DUP3 MSTORE POP POP JUMP JUMPDEST PUSH0 PUSH1 0xC0 DUP3 ADD SWAP1 POP PUSH2 0xC58 PUSH0 DUP4 ADD DUP10 PUSH2 0xB91 JUMP JUMPDEST PUSH2 0xC65 PUSH1 0x20 DUP4 ADD DUP9 PUSH2 0xB91 JUMP JUMPDEST PUSH2 0xC72 PUSH1 0x40 DUP4 ADD DUP8 PUSH2 0xBA9 JUMP JUMPDEST PUSH2 0xC7F PUSH1 0x60 DUP4 ADD DUP7 PUSH2 0xBA9 JUMP JUMPDEST PUSH2 0xC8C PUSH1 0x80 DUP4 ADD DUP6 PUSH2 0xC1C JUMP JUMPDEST PUSH2 0xC99 PUSH1 0xA0 DUP4 ADD DUP5 PUSH2 0xC36 JUMP JUMPDEST SWAP8 SWAP7 POP POP POP POP POP POP POP JUMP JUMPDEST PUSH0 PUSH2 0xCAE DUP3 PUSH2 0xA9B JUMP JUMPDEST SWAP1 POP SWAP2 SWAP1 POP JUMP JUMPDEST PUSH2 0xCBE DUP2 PUSH2 0xCA4 JUMP JUMPDEST DUP3 MSTORE POP POP JUMP JUMPDEST PUSH0 PUSH1 0x20 DUP3 ADD SWAP1 POP PUSH2 0xCD7 PUSH0 DUP4 ADD DUP5 PUSH2 0xCB5 JUMP JUMPDEST SWAP3 SWAP2 POP POP JUMP JUMPDEST PUSH0 DUP3 DUP3 MSTORE PUSH1 0x20 DUP3 ADD SWAP1 POP SWAP3 SWAP2 POP POP JUMP JUMPDEST PUSH32 0x596F75206D7573742073656E642045544820746F2063726561746520616E2065 PUSH0 DUP3 ADD MSTORE PUSH32 0x7363726F77000000000000000000000000000000000000000000000000000000 PUSH1 0x20 DUP3 ADD MSTORE POP JUMP JUMPDEST PUSH0 PUSH2 0xD47 PUSH1 0x25 DUP4 PUSH2 0xCDD JUMP JUMPDEST SWAP2 POP PUSH2 0xD52 DUP3 PUSH2 0xCED JUMP JUMPDEST PUSH1 0x40 DUP3 ADD SWAP1 POP SWAP2 SWAP1 POP JUMP JUMPDEST PUSH0 PUSH1 0x20 DUP3 ADD SWAP1 POP DUP2 DUP2 SUB PUSH0 DUP4 ADD MSTORE PUSH2 0xD74 DUP2 PUSH2 0xD3B JUMP JUMPDEST SWAP1 POP SWAP2 SWAP1 POP JUMP JUMPDEST PUSH32 0x5472616E73616374696F6E20494420616C726561647920657869737473000000 PUSH0 DUP3 ADD MSTORE POP JUMP JUMPDEST PUSH0 PUSH2 0xDAF PUSH1 0x1D DUP4 PUSH2 0xCDD JUMP JUMPDEST SWAP2 POP PUSH2 0xDBA DUP3 PUSH2 0xD7B JUMP JUMPDEST PUSH1 0x20 DUP3 ADD SWAP1 POP SWAP2 SWAP1 POP JUMP JUMPDEST PUSH0 PUSH1 0x20 DUP3 ADD SWAP1 POP DUP2 DUP2 SUB PUSH0 DUP4 ADD MSTORE PUSH2 0xDDC DUP2 PUSH2 0xDA3 JUMP JUMPDEST SWAP1 POP SWAP2 SWAP1 POP JUMP JUMPDEST PUSH0 PUSH1 0x20 DUP3 ADD SWAP1 POP PUSH2 0xDF6 PUSH0 DUP4 ADD DUP5 PUSH2 0xBA9 JUMP JUMPDEST SWAP3 SWAP2 POP POP JUMP JUMPDEST PUSH32 0x5472616E73616374696F6E206973206E6F742061637469766500000000000000 PUSH0 DUP3 ADD MSTORE POP JUMP JUMPDEST PUSH0 PUSH2 0xE30 PUSH1 0x19 DUP4 PUSH2 0xCDD JUMP JUMPDEST SWAP2 POP PUSH2 0xE3B DUP3 PUSH2 0xDFC JUMP JUMPDEST PUSH1 0x20 DUP3 ADD SWAP1 POP SWAP2 SWAP1 POP JUMP JUMPDEST PUSH0 PUSH1 0x20 DUP3 ADD SWAP1 POP DUP2 DUP2 SUB PUSH0 DUP4 ADD MSTORE PUSH2 0xE5D DUP2 PUSH2 0xE24 JUMP JUMPDEST SWAP1 POP SWAP2 SWAP1 POP JUMP JUMPDEST PUSH32 0x5472616E73616374696F6E20616C72656164792070726F636573736564000000 PUSH0 DUP3 ADD MSTORE POP JUMP JUMPDEST PUSH0 PUSH2 0xE98 PUSH1 0x1D DUP4 PUSH2 0xCDD JUMP JUMPDEST SWAP2 POP PUSH2 0xEA3 DUP3 PUSH2 0xE64 JUMP JUMPDEST PUSH1 0x20 DUP3 ADD SWAP1 POP SWAP2 SWAP1 POP JUMP JUMPDEST PUSH0 PUSH1 0x20 DUP3 ADD SWAP1 POP DUP2 DUP2 SUB PUSH0 DUP4 ADD MSTORE PUSH2 0xEC5 DUP2 PUSH2 0xE8C JUMP JUMPDEST SWAP1 POP SWAP2 SWAP1 POP JUMP JUMPDEST PUSH32 0x4E487B7100000000000000000000000000000000000000000000000000000000 PUSH0 MSTORE PUSH1 0x11 PUSH1 0x4 MSTORE PUSH1 0x24 PUSH0 REVERT JUMPDEST PUSH0 PUSH2 0xF03 DUP3 PUSH2 0xBA0 JUMP JUMPDEST SWAP2 POP PUSH2 0xF0E DUP4 PUSH2 0xBA0 JUMP JUMPDEST SWAP3 POP DUP3 DUP3 ADD SWAP1 POP DUP1 DUP3 GT ISZERO PUSH2 0xF26 JUMPI PUSH2 0xF25 PUSH2 0xECC JUMP JUMPDEST JUMPDEST SWAP3 SWAP2 POP POP JUMP JUMPDEST PUSH32 0x5761697420666F722074696D656F7574202836307329206F72204F7261636C65 PUSH0 DUP3 ADD MSTORE PUSH32 0x2074726967676572000000000000000000000000000000000000000000000000 PUSH1 0x20 DUP3 ADD MSTORE POP JUMP JUMPDEST PUSH0 PUSH2 0xF86 PUSH1 0x28 DUP4 PUSH2 0xCDD JUMP JUMPDEST SWAP2 POP PUSH2 0xF91 DUP3 PUSH2 0xF2C JUMP JUMPDEST PUSH1 0x40 DUP3 ADD SWAP1 POP SWAP2 SWAP1 POP JUMP JUMPDEST PUSH0 PUSH1 0x20 DUP3 ADD SWAP1 POP DUP2 DUP2 SUB PUSH0 DUP4 ADD MSTORE PUSH2 0xFB3 DUP2 PUSH2 0xF7A JUMP JUMPDEST SWAP1 POP SWAP2 SWAP1 POP JUMP JUMPDEST PUSH0 DUP2 SWAP1 POP SWAP3 SWAP2 POP POP JUMP JUMPDEST POP JUMP JUMPDEST PUSH0 PUSH2 0xFD2 PUSH0 DUP4 PUSH2 0xFBA JUMP JUMPDEST SWAP2 POP PUSH2 0xFDD DUP3 PUSH2 0xFC4 JUMP JUMPDEST PUSH0 DUP3 ADD SWAP1 POP SWAP2 SWAP1 POP JUMP JUMPDEST PUSH0 PUSH2 0xFF1 DUP3 PUSH2 0xFC7 JUMP JUMPDEST SWAP2 POP DUP2 SWAP1 POP SWAP2 SWAP1 POP JUMP JUMPDEST PUSH32 0x526566756E64207472616E73666572206661696C656400000000000000000000 PUSH0 DUP3 ADD MSTORE POP JUMP JUMPDEST PUSH0 PUSH2 0x102F PUSH1 0x16 DUP4 PUSH2 0xCDD JUMP JUMPDEST SWAP2 POP PUSH2 0x103A DUP3 PUSH2 0xFFB JUMP JUMPDEST PUSH1 0x20 DUP3 ADD SWAP1 POP SWAP2 SWAP1 POP JUMP JUMPDEST PUSH0 PUSH1 0x20 DUP3 ADD SWAP1 POP DUP2 DUP2 SUB PUSH0 DUP4 ADD MSTORE PUSH2 0x105C DUP2 PUSH2 0x1023 JUMP JUMPDEST SWAP1 POP SWAP2 SWAP1 POP JUMP JUMPDEST PUSH0 DUP2 SWAP1 POP SWAP2 SWAP1 POP JUMP JUMPDEST PUSH0 PUSH2 0x1086 PUSH2 0x1081 PUSH2 0x107C DUP5 PUSH2 0xA9B JUMP JUMPDEST PUSH2 0x1063 JUMP JUMPDEST PUSH2 0xA9B JUMP JUMPDEST SWAP1 POP SWAP2 SWAP1 POP JUMP JUMPDEST PUSH0 PUSH2 0x1097 DUP3 PUSH2 0x106C JUMP JUMPDEST SWAP1 POP SWAP2 SWAP1 POP JUMP JUMPDEST PUSH0 PUSH2 0x10A8 DUP3 PUSH2 0x108D JUMP JUMPDEST SWAP1 POP SWAP2 SWAP1 POP JUMP JUMPDEST PUSH2 0x10B8 DUP2 PUSH2 0x109E JUMP JUMPDEST DUP3 MSTORE POP POP JUMP JUMPDEST PUSH0 DUP2 MLOAD SWAP1 POP SWAP2 SWAP1 POP JUMP JUMPDEST DUP3 DUP2 DUP4 MCOPY PUSH0 DUP4 DUP4 ADD MSTORE POP POP POP JUMP JUMPDEST PUSH0 PUSH1 0x1F NOT PUSH1 0x1F DUP4 ADD AND SWAP1 POP SWAP2 SWAP1 POP JUMP JUMPDEST PUSH0 PUSH2 0x10F0 DUP3 PUSH2 0x10BE JUMP JUMPDEST PUSH2 0x10FA DUP2 DUP6 PUSH2 0xCDD JUMP JUMPDEST SWAP4 POP PUSH2 0x110A DUP2 DUP6 PUSH1 0x20 DUP7 ADD PUSH2 0x10C8 JUMP JUMPDEST PUSH2 0x1113 DUP2 PUSH2 0x10D6 JUMP JUMPDEST DUP5 ADD SWAP2 POP POP SWAP3 SWAP2 POP POP JUMP JUMPDEST PUSH0 PUSH1 0x60 DUP3 ADD SWAP1 POP PUSH2 0x1131 PUSH0 DUP4 ADD DUP7 PUSH2 0x10AF JUMP JUMPDEST PUSH2 0x113E PUSH1 0x20 DUP4 ADD DUP6 PUSH2 0xBA9 JUMP JUMPDEST DUP2 DUP2 SUB PUSH1 0x40 DUP4 ADD MSTORE PUSH2 0x1150 DUP2 DUP5 PUSH2 0x10E6 JUMP JUMPDEST SWAP1 POP SWAP5 SWAP4 POP POP POP POP JUMP JUMPDEST PUSH32 0x4F6E6C7920746865204F7261636C652F4261636B656E642063616E2074726967 PUSH0 DUP3 ADD MSTORE PUSH32 0x6765722074686973000000000000000000000000000000000000000000000000 PUSH1 0x20 DUP3 ADD MSTORE POP JUMP JUMPDEST PUSH0 PUSH2 0x11B4 PUSH1 0x28 DUP4 PUSH2 0xCDD JUMP JUMPDEST SWAP2 POP PUSH2 0x11BF DUP3 PUSH2 0x115A JUMP JUMPDEST PUSH1 0x40 DUP3 ADD SWAP1 POP SWAP2 SWAP1 POP JUMP JUMPDEST PUSH0 PUSH1 0x20 DUP3 ADD SWAP1 POP DUP2 DUP2 SUB PUSH0 DUP4 ADD MSTORE PUSH2 0x11E1 DUP2 PUSH2 0x11A8 JUMP JUMPDEST SWAP1 POP SWAP2 SWAP1 POP JUMP JUMPDEST PUSH32 0x5472616E73616374696F6E20616C72656164792066696E616C697A6564000000 PUSH0 DUP3 ADD MSTORE POP JUMP JUMPDEST PUSH0 PUSH2 0x121C PUSH1 0x1D DUP4 PUSH2 0xCDD JUMP JUMPDEST SWAP2 POP PUSH2 0x1227 DUP3 PUSH2 0x11E8 JUMP JUMPDEST PUSH1 0x20 DUP3 ADD SWAP1 POP SWAP2 SWAP1 POP JUMP JUMPDEST PUSH0 PUSH1 0x20 DUP3 ADD SWAP1 POP DUP2 DUP2 SUB PUSH0 DUP4 ADD MSTORE PUSH2 0x1249 DUP2 PUSH2 0x1210 JUMP JUMPDEST SWAP1 POP SWAP2 SWAP1 POP JUMP JUMPDEST PUSH32 0x5472616E7366657220746F206D65726368616E74206661696C65640000000000 PUSH0 DUP3 ADD MSTORE POP JUMP JUMPDEST PUSH0 PUSH2 0x1284 PUSH1 0x1B DUP4 PUSH2 0xCDD JUMP JUMPDEST SWAP2 POP PUSH2 0x128F DUP3 PUSH2 0x1250 JUMP JUMPDEST PUSH1 0x20 DUP3 ADD SWAP1 POP SWAP2 SWAP1 POP JUMP JUMPDEST PUSH0 PUSH1 0x20 DUP3 ADD SWAP1 POP DUP2 DUP2 SUB PUSH0 DUP4 ADD MSTORE PUSH2 0x12B1 DUP2 PUSH2 0x1278 JUMP JUMPDEST SWAP1 POP SWAP2 SWAP1 POP JUMP JUMPDEST PUSH0 PUSH1 0x40 DUP3 ADD SWAP1 POP PUSH2 0x12CB PUSH0 DUP4 ADD DUP6 PUSH2 0x10AF JUMP JUMPDEST PUSH2 0x12D8 PUSH1 0x20 DUP4 ADD DUP5 PUSH2 0xBA9 JUMP JUMPDEST SWAP4 SWAP3 POP POP POP JUMP INVALID LOG2 PUSH5 0x6970667358 0x22 SLT KECCAK256 DUP1 DIV 0x4C PUSH10 0x5BA43B9AFB0D79E08F54 DELEGATECALL SWAP4 DUP3 0x27 SHL STATICCALL REVERT 0xB2 DELEGATECALL MSTORE 0xCF 0xCE DUP9 0x4D 0xC4 PUSH20 0x81B164736F6C634300081C003300000000000000 "},"methodIdentifiers":{"depositFunds(address,bytes32)":"1431b3f5","finalizeTransaction(bytes32)":"b2efda83","owner()":"8da5cb5b","refundUser(bytes32)":"7f5eedae","transactions(bytes32)":"642f2eaf"}}}}}